:04000000FEEF3FF0E0
:1075FE003E01F89D1200050401030201130E95ECE5
:10760E003BF001C006F002C007F01200120E95EC1E
:10761E003BF001C006F002C007F012005BEC3BF03D
:10762E004BEC3CF01EEC3BF0EBEC3BF01200600E32
:10763E003901D96F000EDB6F000EDD6F060EDF6FA6
:10764E00000EDE6F1200016E600007F0E0F93F0ED3
:10765E003901E517E58100F000F03901E351120020
:10766E00026E02AE3DEF3BF03FEF3BF044EF3BF0DE
:10767E00D8800234016E47EF3BF002500224016EB7
:10768E0001501200026E02A04FEF3BF051EF3BF0A3
:10769E0056EF3BF0D8800230016E59EF3BF0D89098
:1076AE000230016E01501200000E3901C06F000E43
:1076BE00C16F000EC26F000EC36F000EC46F000EBE
:1076CE00C56F000EC66F000EC76F120009C001F025
:1076DE00026A07C003F008C004F080EC3BF0040E11
:1076EE000A6ED890023201320A2E78EF3BF001502A
:1076FE001200015003026F00CCFF05F06F00D0FFA7
:10770E0006F001500402F350062602500302F35015
:10771E00062605C001F006C002F01200056E6000DC
:10772E0017F0F1FE3E01F88FF89DF881F8B1A2EF47
:10773E003BF0A4EF3BF09DEF3BF0F051046E036A7B
:10774E00EF510324016E000E0420026E1200040E8F
:10775E00F66E760EF76E000EF86E00EE41F010EE3D
:10776E0006F009006F00D7FFEEFFE550E150F9E19A
:10777E00406A3F6A3E6A3D6A3C6A3B6A0001B7EF67
:10778E003CF0026E000ED2BE010E036E60000BF0D6
:10779E00E0F9600007F0E3F93F0E3901E517E585E2
:1077AE00D29E550EE66FAA0EE66FE583E5B3E2EFC5
:1077BE003BF0E4EF3BF0DDEF3BF0E59503B002D09C
:1077CE00D29E01D0D28E1200000E3E01DE6F000E50
:1077DE00DF6F000EE06F000EE16F000EE46F000E23
:1077EE00E56F000EEA6F000EEC6F000EF16F000EEB
:1077FE00F36F000EF46F000EF56F000EF66F000EB5
:10780E00F76F000EF96F000EFA6F000EFB6F000E91
:10781E00FC6F000EFD6F000EFE6F1F0EFF6F840ECD
:10782E00F86F120003500410D8B420EF3CF022EF92
:10783E003CF046EF3CF0010E056E2AEF3CF0D8907E
:10784E0003360436052A04AE2FEF3CF031EF3CF040
:10785E0026EF3CF00350015C04500258D8A03AEFDA
:10786E003CF03CEF3CF040EF3CF00350015E045026
:10787E00025AD89004320332052E31EF3CF001C08B
:10788E0001F002C002F01200C00EBA6E030EBB6E03
:10789E00F00EBC6E3F0EC26EFC0EC36EEF0EC46ECB
:1078AE00EF0E3A01606FFC0E506F3F0E406F000EF0
:1078BE00816F000E516F000E416F000E616F000E52
:1078CE005A6F000E5B6F000E6A6F000E6B6F000E2C
:1078DE00426F000E526F000E626F43695369636907
:1078EE00446954696469080E846F1200000E066EB6
:1078FE00000E056E03500410D8B488EF3CF08AEFEA
:10790E003CF0B2EF3CF0010E076E92EF3CF0D890D7
:10791E0003360436072A04AE97EF3CF099EF3CF09D
:10792E008EEF3CF0D890053606360350015C0450BD
:10793E000258D8A0A5EF3CF0A7EF3CF0ACEF3CF01E
:10794E000350015E0450025A0580D890043203326F
:10795E00072E99EF3CF005C001F006C002F01200B0
:10796E0015EC3BF0CC0E326E330E336EBB80BB8209
:10797E00BA8EBA8CBC98050E216E0F0E206EF10ECB
:10798E00E82EFED7202EFCD7212EFAD700F0BC8889
:10799E000B0E216E260E206E5E0EE82EFED7202ECA
:1079AE00FCD7212EFAD7020E2AEC3BF02C6E030EDA
:1079BE002AEC3BF02D6E5E0E3A6EFFEC3AF005ECC3
:1079CE003BF005EC3BF006C02AF007C02BF02AC0B6
:1079DE0007F02BC008F02CC009F06DEC3BF0366EB2
:1079EE0036C026F0276A0DEC3BF006C024F007C027
:1079FE0025F024C007F025C008F02DC009F06DEC6D
:107A0E003BF0376E37C028F0296A040E2AEC3BF0A3
:107A1E00E806D8B415EF3DF017EF3DF019EF3DF045
:107A2E0049EC3EF005EC3BF006C034F007C035F0F3
:107A3E003650206E216A3450205C35502158D8B013
:107A4E002BEF3DF02DEF3DF046EF3DF03650345C20
:107A5E00206E000E3558216E3A50226E236A205049
:107A6E00225C21502358D8B03FEF3DF041EF3DF05E
:107A7E0046EF3DF036503A24346E356A3536365080
:107A8E00345C000E3558D8B04FEF3DF051EF3DF05D
:107A9E006CEF3DF03650206E216A3450205E35502A
:107AAE00215A3A50226E236A2050225C21502358CC
:107ABE00D8B064EF3DF066EF3DF06CEF3DF03A501C
:107ACE00365C346E356AD8A035060DEC3BF006C038
:107ADE0038F007C039F038C007F039C008F02DC0B3
:107AEE0009F06DEC3BF0206E2050386E396A37503D
:107AFE00206E216A3850205C39502158D8B08AEF58
:107B0E003DF08CEF3DF0A5EF3DF03750385C206E28
:107B1E00000E3958216E3A50226E236A2050225C94
:107B2E0021502358D8B09EEF3DF0A0EF3DF0A5EFC9
:107B3E003DF037503A24386E396A39363750385C52
:107B4E00000E3958D8B0AEEF3DF0B0EF3DF0CBEFB0
:107B5E003DF03750206E216A3850205E3950215A40
:107B6E003A50226E236A2050225C21502358D8B0FE
:107B7E00C3EF3DF0C5EF3DF0CBEF3DF03A50375C33
:107B8E00386E396AD8A039062650345C2E6E2750CE
:107B9E0035582F6E2850385C306E29503958316E5A
:107BAE0034C026F035C027F038C028F039C029F08F
:107BBE0033EF3EF02FBEE8EF3DF0E6EF3DF0EEEF97
:107BCE003DF0325037EC3BF0326E2E4A2F2A2FBE4C
:107BDE00F9EF3DF02F5008E12E04D8A0F9EF3DF05B
:107BEE00FBEF3DF002EF3EF0325049EC3BF0326ECF
:107BFE002E06D8A02F0631BE0DEF3EF0315008E113
:107C0E003004D8A00DEF3EF00FEF3EF016EF3EF031
:107C1E00335049EC3BF0336E3006D8A0310631BEFE
:107C2E001DEF3EF01BEF3EF023EF3EF0335037ECEE
:107C3E003BF0336E304A312A32C020F0030E20164C
:107C4E00BB50FC0B2010BB6E33C020F0C00E2016B4
:107C5E00BA503F0B2010BA6E2E502F10D8A43AEF08
:107C6E003EF03CEF3EF0E1EF3DF030503110D8A445
:107C7E0043EF3EF045EF3EF0E1EF3DF019EF3DF002
:107C8E00FEEF3FF0000E0D6E000E0C6E000E016E3C
:107C9E00040EC8EC3BF005EC3BF006C01AF007C032
:107CAE001BF00DEC3BF006C01CF007C01DF01AC017
:107CBE0012F01BC013F01AC014F01BC015F01CC03C
:107CCE0016F01DC017F01CC018F01DC019F005EC01
:107CDE003BF006C01EF007C01FF01E50145C1F5074
:107CEE001558D8B07DEF3EF07FEF3EF083EF3EF0BB
:107CFE001EC014F01FC015F012501E5C13501F58FA
:107D0E00D8B08CEF3EF08EEF3EF092EF3EF01EC0FC
:107D1E0012F01FC013F00DEC3BF006C01EF007C0B2
:107D2E001FF01E50185C1F501958D8B0A1EF3EF02E
:107D3E00A3EF3EF0A7EF3EF01EC018F01FC019F0E3
:107D4E0016501E5C17501F58D8B0B0EF3EF0B2EF71
:107D5E003EF0B6EF3EF01EC016F01FC017F00C4AF4
:107D6E000D2AA10E0C5C0F0E0D58D8A0C1EF3EF0DF
:107D7E00C3EF3EF06EEF3EF0000E0D6E000E0C6E79
:107D8E0012501A5C086E13501B58096E1A50145C70
:107D9E000A6E1B5015580B6E08500A5C09500B5892
:107DAE00D8B0DCEF3EF0DEEF3EF0E6EF3EF01A50DC
:107DBE00145C1E6E1B5015581F6EECEF3EF01250E9
:107DCE001A5C1E6E13501B581F6E510E026E000E63
:107DDE00016E1EC003F01FC004F07DEC3CF001C02C
:107DEE000EF002C00FF0510E026E000E016E1EC09C
:107DFE0003F01FC004F019EC3CF001500210D8B48F
:107E0E000BEF3FF00DEF3FF00FEF3FF00E4A0F2A52
:107E1E000EC001F0000EC8EC3BF016501C5C086E54
:107E2E0017501D58096E1C50185C0A6E1D501958BB
:107E3E000B6E08500A5C09500B58D8B029EF3FF072
:107E4E002BEF3FF033EF3FF01C50185C1E6E1D50B1
:107E5E0019581F6E39EF3FF016501C5C1E6E1750EE
:107E6E001D581F6E510E026E000E016E1EC003F0E5
:107E7E001FC004F07DEC3CF001C010F002C011F008
:107E8E00510E026E000E016E1EC003F01FC004F0F4
:107E9E0019EC3CF001500210D8B458EF3FF05AEFF5
:107EAE003FF05CEF3FF0104A112A10C001F0010EB6
:107EBE00C8EC3BF012501A5C086E13501B58096E3A
:107ECE001A50145C0A6E1B5015580B6E08500A5C43
:107EDE0009500B58D8B076EF3FF078EF3FF080EFB7
:107EEE003FF01A50145C1E6E1B5015581F6E86EF15
:107EFE003FF012501A5C1E6E13501B581F6E5B0E15
:107F0E00026E000E016E1EC003F01FC004F07DEC69
:107F1E003CF001C00EF002C00FF05B0E026E000EC0
:107F2E00016E1EC003F01FC004F019EC3CF00150AE
:107F3E000210D8B4A5EF3FF0A7EF3FF0A9EF3FF046
:107F4E000E4A0F2A0EC001F0020EC8EC3BF016507E
:107F5E001C5C086E17501D58096E1C50185C0A6E7A
:107F6E001D5019580B6E08500A5C09500B58D8B0AA
:107F7E00C3EF3FF0C5EF3FF0CDEF3FF01C50185C64
:107F8E001E6E1D5019581F6ED3EF3FF016501C5C1D
:107F9E001E6E17501D581F6E5B0E026E000E016E88
:107FAE001EC003F01FC004F07DEC3CF001C010F0C9
:107FBE0002C011F05B0E026E000E016E1EC003F0C9
:107FCE001FC004F019EC3CF001500210D8B4F2EFCF
:107FDE003FF0F4EF3FF0F6EF3FF0104A112A10C0D9
:107FEE0001F0030EC8EC3BF06EEF3EF01200AEEF68
:027FFE003BF056
:020000040020DA
:10000000FF0FFF0FFF0FFF0FFF0FFF0FFF0FFF0F80
:020000040030CA
:0A0000008CFFF7FF9FFFFFFFFFFFDB
:00000001FF
